{
  "_format": "hh-sol-artifact-1",
  "contractName": "OneBeat",
  "sourceName": "contracts/OneBeat.sol",
  "abi": [
    {
      "inputs": [
        {
          "internalType": "uint256",
          "name": "",
          "type": "uint256"
        },
        {
          "internalType": "uint256",
          "name": "",
          "type": "uint256"
        }
      ],
      "name": "allowedWatchers",
      "outputs": [
        {
          "internalType": "address",
          "name": "",
          "type": "address"
        }
      ],
      "stateMutability": "view",
      "type": "function"
    },
    {
      "inputs": [
        {
          "internalType": "uint256",
          "name": "id",
          "type": "uint256"
        },
        {
          "internalType": "address",
          "name": "watcher",
          "type": "address"
        }
      ],
      "name": "bookSchdeuledStream",
      "outputs": [],
      "stateMutability": "payable",
      "type": "function"
    },
    {
      "inputs": [
        {
          "internalType": "address",
          "name": "user",
          "type": "address"
        },
        {
          "internalType": "uint256",
          "name": "tid",
          "type": "uint256"
        }
      ],
      "name": "buyNFT",
      "outputs": [],
      "stateMutability": "nonpayable",
      "type": "function"
    },
    {
      "inputs": [
        {
          "internalType": "address",
          "name": "user",
          "type": "address"
        },
        {
          "internalType": "uint256",
          "name": "tid",
          "type": "uint256"
        }
      ],
      "name": "createNFT",
      "outputs": [],
      "stateMutability": "nonpayable",
      "type": "function"
    },
    {
      "inputs": [
        {
          "internalType": "address",
          "name": "user",
          "type": "address"
        },
        {
          "internalType": "string",
          "name": "name",
          "type": "string"
        },
        {
          "internalType": "string",
          "name": "photo",
          "type": "string"
        }
      ],
      "name": "createProfile",
      "outputs": [],
      "stateMutability": "nonpayable",
      "type": "function"
    },
    {
      "inputs": [
        {
          "internalType": "address",
          "name": "creator",
          "type": "address"
        },
        {
          "internalType": "string",
          "name": "t",
          "type": "string"
        },
        {
          "internalType": "string",
          "name": "d",
          "type": "string"
        },
        {
          "internalType": "string",
          "name": "rights",
          "type": "string"
        },
        {
          "internalType": "string",
          "name": "cid",
          "type": "string"
        },
        {
          "internalType": "string",
          "name": "v_cid",
          "type": "string"
        },
        {
          "internalType": "bool",
          "name": "isRecord",
          "type": "bool"
        }
      ],
      "name": "createStream",
      "outputs": [],
      "stateMutability": "nonpayable",
      "type": "function"
    },
    {
      "inputs": [
        {
          "internalType": "address",
          "name": "",
          "type": "address"
        }
      ],
      "name": "creatorInfo",
      "outputs": [
        {
          "internalType": "address",
          "name": "creator",
          "type": "address"
        },
        {
          "internalType": "string",
          "name": "creatorName",
          "type": "string"
        },
        {
          "internalType": "string",
          "name": "photo_cid",
          "type": "string"
        }
      ],
      "stateMutability": "view",
      "type": "function"
    },
    {
      "inputs": [
        {
          "internalType": "uint256",
          "name": "id",
          "type": "uint256"
        }
      ],
      "name": "getAllScheduledStreams",
      "outputs": [
        {
          "components": [
            {
              "internalType": "uint256",
              "name": "schedule_id",
              "type": "uint256"
            },
            {
              "internalType": "address",
              "name": "schedule_creator",
              "type": "address"
            },
            {
              "internalType": "string",
              "name": "cover_cid",
              "type": "string"
            },
            {
              "internalType": "string",
              "name": "s_title",
              "type": "string"
            },
            {
              "internalType": "string",
              "name": "s_description",
              "type": "string"
            },
            {
              "internalType": "string",
              "name": "starttime",
              "type": "string"
            },
            {
              "internalType": "string",
              "name": "endtime",
              "type": "string"
            },
            {
              "internalType": "string",
              "name": "rights",
              "type": "string"
            },
            {
              "internalType": "uint256",
              "name": "price",
              "type": "uint256"
            },
            {
              "internalType": "string",
              "name": "s_video_id",
              "type": "string"
            },
            {
              "internalType": "bool",
              "name": "isOver",
              "type": "bool"
            }
          ],
          "internalType": "struct OneBeat.StreamScheduled",
          "name": "",
          "type": "tuple"
        }
      ],
      "stateMutability": "view",
      "type": "function"
    },
    {
      "inputs": [
        {
          "internalType": "uint256",
          "name": "id",
          "type": "uint256"
        }
      ],
      "name": "getAllStream",
      "outputs": [
        {
          "components": [
            {
              "internalType": "uint256",
              "name": "stream_id",
              "type": "uint256"
            },
            {
              "internalType": "address",
              "name": "stream_creator",
              "type": "address"
            },
            {
              "internalType": "string",
              "name": "title",
              "type": "string"
            },
            {
              "internalType": "string",
              "name": "description",
              "type": "string"
            },
            {
              "internalType": "string",
              "name": "stream_rights",
              "type": "string"
            },
            {
              "internalType": "string",
              "name": "img_cid",
              "type": "string"
            },
            {
              "internalType": "string",
              "name": "video_id",
              "type": "string"
            },
            {
              "internalType": "bool",
              "name": "wantToRecord",
              "type": "bool"
            }
          ],
          "internalType": "struct OneBeat.Stream",
          "name": "",
          "type": "tuple"
        }
      ],
      "stateMutability": "view",
      "type": "function"
    },
    {
      "inputs": [],
      "name": "getAllUsers",
      "outputs": [
        {
          "internalType": "address[]",
          "name": "",
          "type": "address[]"
        }
      ],
      "stateMutability": "view",
      "type": "function"
    },
    {
      "inputs": [
        {
          "internalType": "uint256",
          "name": "id",
          "type": "uint256"
        }
      ],
      "name": "getAllowedWatcher",
      "outputs": [
        {
          "internalType": "address[]",
          "name": "",
          "type": "address[]"
        }
      ],
      "stateMutability": "view",
      "type": "function"
    },
    {
      "inputs": [
        {
          "internalType": "address",
          "name": "user",
          "type": "address"
        }
      ],
      "name": "getCreator",
      "outputs": [
        {
          "components": [
            {
              "internalType": "address",
              "name": "creator",
              "type": "address"
            },
            {
              "internalType": "string",
              "name": "creatorName",
              "type": "string"
            },
            {
              "internalType": "string",
              "name": "photo_cid",
              "type": "string"
            },
            {
              "internalType": "uint256[]",
              "name": "tokens",
              "type": "uint256[]"
            }
          ],
          "internalType": "struct OneBeat.Creator",
          "name": "",
          "type": "tuple"
        }
      ],
      "stateMutability": "view",
      "type": "function"
    },
    {
      "inputs": [
        {
          "internalType": "address",
          "name": "user",
          "type": "address"
        }
      ],
      "name": "getStreamId",
      "outputs": [
        {
          "internalType": "uint256[]",
          "name": "",
          "type": "uint256[]"
        }
      ],
      "stateMutability": "view",
      "type": "function"
    },
    {
      "inputs": [
        {
          "internalType": "address",
          "name": "user",
          "type": "address"
        }
      ],
      "name": "getTotal",
      "outputs": [
        {
          "internalType": "uint256",
          "name": "",
          "type": "uint256"
        }
      ],
      "stateMutability": "view",
      "type": "function"
    },
    {
      "inputs": [],
      "name": "getTotalScheduledNumber",
      "outputs": [
        {
          "internalType": "uint256",
          "name": "",
          "type": "uint256"
        }
      ],
      "stateMutability": "view",
      "type": "function"
    },
    {
      "inputs": [
        {
          "internalType": "address",
          "name": "user",
          "type": "address"
        }
      ],
      "name": "getTotalScheduledStreams",
      "outputs": [
        {
          "internalType": "uint256",
          "name": "",
          "type": "uint256"
        }
      ],
      "stateMutability": "view",
      "type": "function"
    },
    {
      "inputs": [
        {
          "internalType": "address",
          "name": "user",
          "type": "address"
        }
      ],
      "name": "getTotalStream",
      "outputs": [
        {
          "internalType": "uint256",
          "name": "",
          "type": "uint256"
        }
      ],
      "stateMutability": "view",
      "type": "function"
    },
    {
      "inputs": [],
      "name": "getTotalStreamNumber",
      "outputs": [
        {
          "internalType": "uint256",
          "name": "",
          "type": "uint256"
        }
      ],
      "stateMutability": "view",
      "type": "function"
    },
    {
      "inputs": [
        {
          "internalType": "uint256",
          "name": "",
          "type": "uint256"
        }
      ],
      "name": "idToScheduledStream",
      "outputs": [
        {
          "internalType": "uint256",
          "name": "schedule_id",
          "type": "uint256"
        },
        {
          "internalType": "address",
          "name": "schedule_creator",
          "type": "address"
        },
        {
          "internalType": "string",
          "name": "cover_cid",
          "type": "string"
        },
        {
          "internalType": "string",
          "name": "s_title",
          "type": "string"
        },
        {
          "internalType": "string",
          "name": "s_description",
          "type": "string"
        },
        {
          "internalType": "string",
          "name": "starttime",
          "type": "string"
        },
        {
          "internalType": "string",
          "name": "endtime",
          "type": "string"
        },
        {
          "internalType": "string",
          "name": "rights",
          "type": "string"
        },
        {
          "internalType": "uint256",
          "name": "price",
          "type": "uint256"
        },
        {
          "internalType": "string",
          "name": "s_video_id",
          "type": "string"
        },
        {
          "internalType": "bool",
          "name": "isOver",
          "type": "bool"
        }
      ],
      "stateMutability": "view",
      "type": "function"
    },
    {
      "inputs": [
        {
          "internalType": "uint256",
          "name": "",
          "type": "uint256"
        }
      ],
      "name": "idToStream",
      "outputs": [
        {
          "internalType": "uint256",
          "name": "stream_id",
          "type": "uint256"
        },
        {
          "internalType": "address",
          "name": "stream_creator",
          "type": "address"
        },
        {
          "internalType": "string",
          "name": "title",
          "type": "string"
        },
        {
          "internalType": "string",
          "name": "description",
          "type": "string"
        },
        {
          "internalType": "string",
          "name": "stream_rights",
          "type": "string"
        },
        {
          "internalType": "string",
          "name": "img_cid",
          "type": "string"
        },
        {
          "internalType": "string",
          "name": "video_id",
          "type": "string"
        },
        {
          "internalType": "bool",
          "name": "wantToRecord",
          "type": "bool"
        }
      ],
      "stateMutability": "view",
      "type": "function"
    },
    {
      "inputs": [
        {
          "internalType": "address",
          "name": "creator",
          "type": "address"
        },
        {
          "internalType": "string",
          "name": "cid",
          "type": "string"
        },
        {
          "internalType": "string",
          "name": "title",
          "type": "string"
        },
        {
          "internalType": "string",
          "name": "des",
          "type": "string"
        },
        {
          "internalType": "string",
          "name": "stime",
          "type": "string"
        },
        {
          "internalType": "string",
          "name": "etime",
          "type": "string"
        },
        {
          "internalType": "string",
          "name": "rights",
          "type": "string"
        },
        {
          "internalType": "uint256",
          "name": "price",
          "type": "uint256"
        }
      ],
      "name": "scheduleStream",
      "outputs": [],
      "stateMutability": "nonpayable",
      "type": "function"
    },
    {
      "inputs": [
        {
          "internalType": "uint256",
          "name": "id",
          "type": "uint256"
        },
        {
          "internalType": "string",
          "name": "v_id",
          "type": "string"
        }
      ],
      "name": "startStream",
      "outputs": [],
      "stateMutability": "nonpayable",
      "type": "function"
    },
    {
      "inputs": [
        {
          "internalType": "address",
          "name": "",
          "type": "address"
        },
        {
          "internalType": "uint256",
          "name": "",
          "type": "uint256"
        }
      ],
      "name": "userToScheduledStream",
      "outputs": [
        {
          "internalType": "uint256",
          "name": "",
          "type": "uint256"
        }
      ],
      "stateMutability": "view",
      "type": "function"
    },
    {
      "inputs": [
        {
          "internalType": "address",
          "name": "",
          "type": "address"
        },
        {
          "internalType": "uint256",
          "name": "",
          "type": "uint256"
        }
      ],
      "name": "userToStream",
      "outputs": [
        {
          "internalType": "uint256",
          "name": "",
          "type": "uint256"
        }
      ],
      "stateMutability": "view",
      "type": "function"
    },
    {
      "inputs": [
        {
          "internalType": "uint256",
          "name": "",
          "type": "uint256"
        }
      ],
      "name": "users",
      "outputs": [
        {
          "internalType": "address",
          "name": "",
          "type": "address"
        }
      ],
      "stateMutability": "view",
      "type": "function"
    }
  ],
  "bytecode": "0x608060405234801561001057600080fd5b506137c1806100206000396000f3fe6080604052600436106101665760003560e01c80637ff195f5116100d1578063c518761e1161008a578063d5721a3511610064578063d5721a35146105cf578063dd1c9a1e14610613578063e2842d791461063c578063ebb6dad81461066757610166565b8063c518761e1461054b578063c5d8e28314610567578063d48286a51461059257610166565b80637ff195f5146104035780638d262dfa146104405780639aee1b931461047d578063a0210309146104bc578063a82ba76f146104f9578063c11c956c1461052257610166565b806355f6333b1161012357806355f6333b146102d95780635c42d50414610320578063605804d91461034957806360dd68121461037257806361dbee6f1461039b5780637b2f085c146103c657610166565b8063142fc78e1461016b57806316a76c04146101a85780632aff7c33146101e5578063350f81b814610222578063365b98b21461025f5780634891a2e51461029c575b600080fd5b34801561017757600080fd5b50610192600480360381019061018d9190612bb4565b6106a4565b60405161019f919061329e565b60405180910390f35b3480156101b457600080fd5b506101cf60048036038101906101ca91906128b4565b6106d5565b6040516101dc919061329e565b60405180910390f35b3480156101f157600080fd5b5061020c60048036038101906102079190612bf0565b610721565b60405161021991906131d4565b60405180910390f35b34801561022e57600080fd5b5061024960048036038101906102449190612bf0565b6107c2565b604051610256919061325a565b60405180910390f35b34801561026b57600080fd5b5061028660048036038101906102819190612bf0565b610c73565b6040516102939190613174565b60405180910390f35b3480156102a857600080fd5b506102c360048036038101906102be91906128b4565b610cb2565b6040516102d091906131f6565b60405180910390f35b3480156102e557600080fd5b5061030060048036038101906102fb9190612bf0565b610d49565b6040516103179b9a9998979695949392919061335a565b60405180910390f35b34801561032c57600080fd5b5061034760048036038101906103429190612c55565b611188565b005b34801561035557600080fd5b50610370600480360381019061036b9190612a72565b6111e6565b005b34801561037e57600080fd5b50610399600480360381019061039491906128dd565b611449565b005b3480156103a757600080fd5b506103b0611689565b6040516103bd919061329e565b60405180910390f35b3480156103d257600080fd5b506103ed60048036038101906103e891906128b4565b611693565b6040516103fa919061329e565b60405180910390f35b34801561040f57600080fd5b5061042a60048036038101906104259190612ca9565b6116df565b6040516104379190613174565b60405180910390f35b34801561044c57600080fd5b5061046760048036038101906104629190612bb4565b61172d565b604051610474919061329e565b60405180910390f35b34801561048957600080fd5b506104a4600480360381019061049f91906128b4565b61175e565b6040516104b39392919061318f565b60405180910390f35b3480156104c857600080fd5b506104e360048036038101906104de91906128b4565b6118b8565b6040516104f09190613238565b60405180910390f35b34801561050557600080fd5b50610520600480360381019061051b9190612bb4565b611ae3565b005b34801561052e57600080fd5b5061054960048036038101906105449190612bb4565b611b50565b005b61056560048036038101906105609190612c19565b611bbd565b005b34801561057357600080fd5b5061057c611c93565b604051610589919061329e565b60405180910390f35b34801561059e57600080fd5b506105b960048036038101906105b49190612bf0565b611c9d565b6040516105c6919061327c565b60405180910390f35b3480156105db57600080fd5b506105f660048036038101906105f19190612bf0565b612020565b60405161060a9897969594939291906132b9565b60405180910390f35b34801561061f57600080fd5b5061063a6004803603810190610635919061295c565b61233d565b005b34801561064857600080fd5b50610651612536565b60405161065e91906131d4565b60405180910390f35b34801561067357600080fd5b5061068e600480360381019061068991906128b4565b6125c4565b60405161069b919061329e565b60405180910390f35b600560205281600052604060002081815481106106c057600080fd5b90600052602060002001600091509150505481565b6000600560008373ffffffffffffffffffffffffffffffffffffffff1673ffffffffffffffffffffffffffffffffffffffff168152602001908152602001600020805490509050919050565b6060600760008381526020019081526020016000208054806020026020016040519081016040528092919081815260200182805480156107b657602002820191906000526020600020905b8160009054906101000a900473ffffffffffffffffffffffffffffffffffffffff1673ffffffffffffffffffffffffffffffffffffffff168152602001906001019080831161076c575b50505050509050919050565b6107ca61265d565b6004600083815260200190815260200160002060405180610160016040529081600082015481526020016001820160009054906101000a900473ffffffffffffffffffffffffffffffffffffffff1673ffffffffffffffffffffffffffffffffffffffff1673ffffffffffffffffffffffffffffffffffffffff1681526020016002820180546108599061361c565b80601f01602080910402602001604051908101604052809291908181526020018280546108859061361c565b80156108d25780601f106108a7576101008083540402835291602001916108d2565b820191906000526020600020905b8154815290600101906020018083116108b557829003601f168201915b505050505081526020016003820180546108eb9061361c565b80601f01602080910402602001604051908101604052809291908181526020018280546109179061361c565b80156109645780601f1061093957610100808354040283529160200191610964565b820191906000526020600020905b81548152906001019060200180831161094757829003601f168201915b5050505050815260200160048201805461097d9061361c565b80601f01602080910402602001604051908101604052809291908181526020018280546109a99061361c565b80156109f65780601f106109cb576101008083540402835291602001916109f6565b820191906000526020600020905b8154815290600101906020018083116109d957829003601f168201915b50505050508152602001600582018054610a0f9061361c565b80601f0160208091040260200160405190810160405280929190818152602001828054610a3b9061361c565b8015610a885780601f10610a5d57610100808354040283529160200191610a88565b820191906000526020600020905b815481529060010190602001808311610a6b57829003601f168201915b50505050508152602001600682018054610aa19061361c565b80601f0160208091040260200160405190810160405280929190818152602001828054610acd9061361c565b8015610b1a5780601f10610aef57610100808354040283529160200191610b1a565b820191906000526020600020905b815481529060010190602001808311610afd57829003601f168201915b50505050508152602001600782018054610b339061361c565b80601f0160208091040260200160405190810160405280929190818152602001828054610b5f9061361c565b8015610bac5780601f10610b8157610100808354040283529160200191610bac565b820191906000526020600020905b815481529060010190602001808311610b8f57829003601f168201915b5050505050815260200160088201548152602001600982018054610bcf9061361c565b80601f0160208091040260200160405190810160405280929190818152602001828054610bfb9061361c565b8015610c485780601f10610c1d57610100808354040283529160200191610c48565b820191906000526020600020905b815481529060010190602001808311610c2b57829003601f168201915b50505050508152602001600a820160009054906101000a900460ff1615151515815250509050919050565b60008181548110610c8357600080fd5b906000526020600020016000915054906101000a900473ffffffffffffffffffffffffffffffffffffffff1681565b6060600360008373ffffffffffffffffffffffffffffffffffffffff1673ffffffffffffffffffffffffffffffffffffffff168152602001908152602001600020805480602002602001604051908101604052809291908181526020018280548015610d3d57602002820191906000526020600020905b815481526020019060010190808311610d29575b50505050509050919050565b60046020528060005260406000206000915090508060000154908060010160009054906101000a900473ffffffffffffffffffffffffffffffffffffffff1690806002018054610d989061361c565b80601f0160208091040260200160405190810160405280929190818152602001828054610dc49061361c565b8015610e115780601f10610de657610100808354040283529160200191610e11565b820191906000526020600020905b815481529060010190602001808311610df457829003601f168201915b505050505090806003018054610e269061361c565b80601f0160208091040260200160405190810160405280929190818152602001828054610e529061361c565b8015610e9f5780601f10610e7457610100808354040283529160200191610e9f565b820191906000526020600020905b815481529060010190602001808311610e8257829003601f168201915b505050505090806004018054610eb49061361c565b80601f0160208091040260200160405190810160405280929190818152602001828054610ee09061361c565b8015610f2d5780601f10610f0257610100808354040283529160200191610f2d565b820191906000526020600020905b815481529060010190602001808311610f1057829003601f168201915b505050505090806005018054610f429061361c565b80601f0160208091040260200160405190810160405280929190818152602001828054610f6e9061361c565b8015610fbb5780601f10610f9057610100808354040283529160200191610fbb565b820191906000526020600020905b815481529060010190602001808311610f9e57829003601f168201915b505050505090806006018054610fd09061361c565b80601f0160208091040260200160405190810160405280929190818152602001828054610ffc9061361c565b80156110495780601f1061101e57610100808354040283529160200191611049565b820191906000526020600020905b81548152906001019060200180831161102c57829003601f168201915b50505050509080600701805461105e9061361c565b80601f016020809104026020016040519081016040528092919081815260200182805461108a9061361c565b80156110d75780601f106110ac576101008083540402835291602001916110d7565b820191906000526020600020905b8154815290600101906020018083116110ba57829003601f168201915b5050505050908060080154908060090180546110f29061361c565b80601f016020809104026020016040519081016040528092919081815260200182805461111e9061361c565b801561116b5780601f106111405761010080835404028352916020019161116b565b820191906000526020600020905b81548152906001019060200180831161114e57829003601f168201915b50505050509080600a0160009054906101000a900460ff1690508b565b806004600084815260200190815260200160002060090190805190602001906111b29291906126cf565b50600160046000848152602001908152602001600020600a0160006101000a81548160ff0219169083151502179055505050565b6001600860008282546111f9919061353c565b9250508190555060405180610160016040528060085481526020018973ffffffffffffffffffffffffffffffffffffffff168152602001888152602001878152602001868152602001858152602001848152602001838152602001828152602001604051806020016040528060008152508152602001600015158152506004600060085481526020019081526020016000206000820151816000015560208201518160010160006101000a81548173ffffffffffffffffffffffffffffffffffffffff021916908373ffffffffffffffffffffffffffffffffffffffff16021790555060408201518160020190805190602001906112f89291906126cf565b5060608201518160030190805190602001906113159291906126cf565b5060808201518160040190805190602001906113329291906126cf565b5060a082015181600501908051906020019061134f9291906126cf565b5060c082015181600601908051906020019061136c9291906126cf565b5060e08201518160070190805190602001906113899291906126cf565b5061010082015181600801556101208201518160090190805190602001906113b29291906126cf565b5061014082015181600a0160006101000a81548160ff021916908315150217905550905050600560008973ffffffffffffffffffffffffffffffffffffffff1673ffffffffffffffffffffffffffffffffffffffff16815260200190815260200160002060085490806001815401808255809150506001900390600052602060002001600090919091909150555050505050505050565b600160008473ffffffffffffffffffffffffffffffffffffffff1673ffffffffffffffffffffffffffffffffffffffff16815260200190815260200160002060009054906101000a900460ff16611555576000839080600181540180825580915050600190039060005260206000200160009091909190916101000a81548173ffffffffffffffffffffffffffffffffffffffff021916908373ffffffffffffffffffffffffffffffffffffffff16021790555060018060008573ffffffffffffffffffffffffffffffffffffffff1673ffffffffffffffffffffffffffffffffffffffff16815260200190815260200160002060006101000a81548160ff0219169083151502179055505b82600660008573ffffffffffffffffffffffffffffffffffffffff1673ffffffffffffffffffffffffffffffffffffffff16815260200190815260200160002060000160006101000a81548173ffffffffffffffffffffffffffffffffffffffff021916908373ffffffffffffffffffffffffffffffffffffffff16021790555081600660008573ffffffffffffffffffffffffffffffffffffffff1673ffffffffffffffffffffffffffffffffffffffff168152602001908152602001600020600101908051906020019061162c9291906126cf565b5080600660008573ffffffffffffffffffffffffffffffffffffffff1673ffffffffffffffffffffffffffffffffffffffff16815260200190815260200160002060020190805190602001906116839291906126cf565b50505050565b6000600954905090565b6000600360008373ffffffffffffffffffffffffffffffffffffffff1673ffffffffffffffffffffffffffffffffffffffff168152602001908152602001600020805490509050919050565b600760205281600052604060002081815481106116fb57600080fd5b906000526020600020016000915091509054906101000a900473ffffffffffffffffffffffffffffffffffffffff1681565b6003602052816000526040600020818154811061174957600080fd5b90600052602060002001600091509150505481565b60066020528060005260406000206000915090508060000160009054906101000a900473ffffffffffffffffffffffffffffffffffffffff16908060010180546117a79061361c565b80601f01602080910402602001604051908101604052809291908181526020018280546117d39061361c565b80156118205780601f106117f557610100808354040283529160200191611820565b820191906000526020600020905b81548152906001019060200180831161180357829003601f168201915b5050505050908060020180546118359061361c565b80601f01602080910402602001604051908101604052809291908181526020018280546118619061361c565b80156118ae5780601f10611883576101008083540402835291602001916118ae565b820191906000526020600020905b81548152906001019060200180831161189157829003601f168201915b5050505050905083565b6118c0612755565b600660008373ffffffffffffffffffffffffffffffffffffffff1673ffffffffffffffffffffffffffffffffffffffff1681526020019081526020016000206040518060800160405290816000820160009054906101000a900473ffffffffffffffffffffffffffffffffffffffff1673ffffffffffffffffffffffffffffffffffffffff1673ffffffffffffffffffffffffffffffffffffffff1681526020016001820180546119709061361c565b80601f016020809104026020016040519081016040528092919081815260200182805461199c9061361c565b80156119e95780601f106119be576101008083540402835291602001916119e9565b820191906000526020600020905b8154815290600101906020018083116119cc57829003601f168201915b50505050508152602001600282018054611a029061361c565b80601f0160208091040260200160405190810160405280929190818152602001828054611a2e9061361c565b8015611a7b5780601f10611a5057610100808354040283529160200191611a7b565b820191906000526020600020905b815481529060010190602001808311611a5e57829003601f168201915b5050505050815260200160038201805480602002602001604051908101604052809291908181526020018280548015611ad357602002820191906000526020600020905b815481526020019060010190808311611abf575b5050505050815250509050919050565b600660008373ffffffffffffffffffffffffffffffffffffffff1673ffffffffffffffffffffffffffffffffffffffff1681526020019081526020016000206003018190806001815401808255809150506001900390600052602060002001600090919091909150555050565b600660008373ffffffffffffffffffffffffffffffffffffffff1673ffffffffffffffffffffffffffffffffffffffff1681526020019081526020016000206003018190806001815401808255809150506001900390600052602060002001600090919091909150555050565b600060046000848152602001908152602001600020600801549050803414611c1a576040517f08c379a0000000000000000000000000000000000000000000000000000000008152600401611c1190613218565b60405180910390fd5b60076000848152602001908152602001600020829080600181540180825580915050600190039060005260206000200160009091909190916101000a81548173ffffffffffffffffffffffffffffffffffffffff021916908373ffffffffffffffffffffffffffffffffffffffff160217905550505050565b6000600854905090565b611ca5612793565b6002600083815260200190815260200160002060405180610100016040529081600082015481526020016001820160009054906101000a900473ffffffffffffffffffffffffffffffffffffffff1673ffffffffffffffffffffffffffffffffffffffff1673ffffffffffffffffffffffffffffffffffffffff168152602001600282018054611d349061361c565b80601f0160208091040260200160405190810160405280929190818152602001828054611d609061361c565b8015611dad5780601f10611d8257610100808354040283529160200191611dad565b820191906000526020600020905b815481529060010190602001808311611d9057829003601f168201915b50505050508152602001600382018054611dc69061361c565b80601f0160208091040260200160405190810160405280929190818152602001828054611df29061361c565b8015611e3f5780601f10611e1457610100808354040283529160200191611e3f565b820191906000526020600020905b815481529060010190602001808311611e2257829003601f168201915b50505050508152602001600482018054611e589061361c565b80601f0160208091040260200160405190810160405280929190818152602001828054611e849061361c565b8015611ed15780601f10611ea657610100808354040283529160200191611ed1565b820191906000526020600020905b815481529060010190602001808311611eb457829003601f168201915b50505050508152602001600582018054611eea9061361c565b80601f0160208091040260200160405190810160405280929190818152602001828054611f169061361c565b8015611f635780601f10611f3857610100808354040283529160200191611f63565b820191906000526020600020905b815481529060010190602001808311611f4657829003601f168201915b50505050508152602001600682018054611f7c9061361c565b80601f0160208091040260200160405190810160405280929190818152602001828054611fa89061361c565b8015611ff55780601f10611fca57610100808354040283529160200191611ff5565b820191906000526020600020905b815481529060010190602001808311611fd857829003601f168201915b505050505081526020016007820160009054906101000a900460ff1615151515815250509050919050565b60026020528060005260406000206000915090508060000154908060010160009054906101000a900473ffffffffffffffffffffffffffffffffffffffff169080600201805461206f9061361c565b80601f016020809104026020016040519081016040528092919081815260200182805461209b9061361c565b80156120e85780601f106120bd576101008083540402835291602001916120e8565b820191906000526020600020905b8154815290600101906020018083116120cb57829003601f168201915b5050505050908060030180546120fd9061361c565b80601f01602080910402602001604051908101604052809291908181526020018280546121299061361c565b80156121765780601f1061214b57610100808354040283529160200191612176565b820191906000526020600020905b81548152906001019060200180831161215957829003601f168201915b50505050509080600401805461218b9061361c565b80601f01602080910402602001604051908101604052809291908181526020018280546121b79061361c565b80156122045780601f106121d957610100808354040283529160200191612204565b820191906000526020600020905b8154815290600101906020018083116121e757829003601f168201915b5050505050908060050180546122199061361c565b80601f01602080910402602001604051908101604052809291908181526020018280546122459061361c565b80156122925780601f1061226757610100808354040283529160200191612292565b820191906000526020600020905b81548152906001019060200180831161227557829003601f168201915b5050505050908060060180546122a79061361c565b80601f01602080910402602001604051908101604052809291908181526020018280546122d39061361c565b80156123205780601f106122f557610100808354040283529160200191612320565b820191906000526020600020905b81548152906001019060200180831161230357829003601f168201915b5050505050908060070160009054906101000a900460ff16905088565b600160096000828254612350919061353c565b9250508190555060405180610100016040528060095481526020018873ffffffffffffffffffffffffffffffffffffffff1681526020018781526020018681526020018581526020018481526020018381526020018215158152506002600060095481526020019081526020016000206000820151816000015560208201518160010160006101000a81548173ffffffffffffffffffffffffffffffffffffffff021916908373ffffffffffffffffffffffffffffffffffffffff160217905550604082015181600201908051906020019061242d9291906126cf565b50606082015181600301908051906020019061244a9291906126cf565b5060808201518160040190805190602001906124679291906126cf565b5060a08201518160050190805190602001906124849291906126cf565b5060c08201518160060190805190602001906124a19291906126cf565b5060e08201518160070160006101000a81548160ff021916908315150217905550905050600360008873ffffffffffffffffffffffffffffffffffffffff1673ffffffffffffffffffffffffffffffffffffffff168152602001908152602001600020600954908060018154018082558091505060019003906000526020600020016000909190919091505550505050505050565b606060008054806020026020016040519081016040528092919081815260200182805480156125ba57602002820191906000526020600020905b8160009054906101000a900473ffffffffffffffffffffffffffffffffffffffff1673ffffffffffffffffffffffffffffffffffffffff1681526020019060010190808311612570575b5050505050905090565b6000600560008373ffffffffffffffffffffffffffffffffffffffff1673ffffffffffffffffffffffffffffffffffffffff16815260200190815260200160002080549050600360008473ffffffffffffffffffffffffffffffffffffffff1673ffffffffffffffffffffffffffffffffffffffff16815260200190815260200160002080549050612656919061353c565b9050919050565b60405180610160016040528060008152602001600073ffffffffffffffffffffffffffffffffffffffff16815260200160608152602001606081526020016060815260200160608152602001606081526020016060815260200160008152602001606081526020016000151581525090565b8280546126db9061361c565b90600052602060002090601f0160209004810192826126fd5760008555612744565b82601f1061271657805160ff1916838001178555612744565b82800160010185558215612744579182015b82811115612743578251825591602001919060010190612728565b5b50905061275191906127f0565b5090565b6040518060800160405280600073ffffffffffffffffffffffffffffffffffffffff1681526020016060815260200160608152602001606081525090565b60405180610100016040528060008152602001600073ffffffffffffffffffffffffffffffffffffffff16815260200160608152602001606081526020016060815260200160608152602001606081526020016000151581525090565b5b808211156128095760008160009055506001016127f1565b5090565b600061282061281b8461345b565b613436565b90508281526020810184848401111561283857600080fd5b6128438482856135da565b509392505050565b60008135905061285a81613746565b92915050565b60008135905061286f8161375d565b92915050565b600082601f83011261288657600080fd5b813561289684826020860161280d565b91505092915050565b6000813590506128ae81613774565b92915050565b6000602082840312156128c657600080fd5b60006128d48482850161284b565b91505092915050565b6000806000606084860312156128f257600080fd5b60006129008682870161284b565b935050602084013567ffffffffffffffff81111561291d57600080fd5b61292986828701612875565b925050604084013567ffffffffffffffff81111561294657600080fd5b61295286828701612875565b9150509250925092565b600080600080600080600060e0888a03121561297757600080fd5b60006129858a828b0161284b565b975050602088013567ffffffffffffffff8111156129a257600080fd5b6129ae8a828b01612875565b965050604088013567ffffffffffffffff8111156129cb57600080fd5b6129d78a828b01612875565b955050606088013567ffffffffffffffff8111156129f457600080fd5b612a008a828b01612875565b945050608088013567ffffffffffffffff811115612a1d57600080fd5b612a298a828b01612875565b93505060a088013567ffffffffffffffff811115612a4657600080fd5b612a528a828b01612875565b92505060c0612a638a828b01612860565b91505092959891949750929550565b600080600080600080600080610100898b031215612a8f57600080fd5b6000612a9d8b828c0161284b565b985050602089013567ffffffffffffffff811115612aba57600080fd5b612ac68b828c01612875565b975050604089013567ffffffffffffffff811115612ae357600080fd5b612aef8b828c01612875565b965050606089013567ffffffffffffffff811115612b0c57600080fd5b612b188b828c01612875565b955050608089013567ffffffffffffffff811115612b3557600080fd5b612b418b828c01612875565b94505060a089013567ffffffffffffffff811115612b5e57600080fd5b612b6a8b828c01612875565b93505060c089013567ffffffffffffffff811115612b8757600080fd5b612b938b828c01612875565b92505060e0612ba48b828c0161289f565b9150509295985092959890939650565b60008060408385031215612bc757600080fd5b6000612bd58582860161284b565b9250506020612be68582860161289f565b9150509250929050565b600060208284031215612c0257600080fd5b6000612c108482850161289f565b91505092915050565b60008060408385031215612c2c57600080fd5b6000612c3a8582860161289f565b9250506020612c4b8582860161284b565b9150509250929050565b60008060408385031215612c6857600080fd5b6000612c768582860161289f565b925050602083013567ffffffffffffffff811115612c9357600080fd5b612c9f85828601612875565b9150509250929050565b60008060408385031215612cbc57600080fd5b6000612cca8582860161289f565b9250506020612cdb8582860161289f565b9150509250929050565b6000612cf18383612d15565b60208301905092915050565b6000612d098383613156565b60208301905092915050565b612d1e81613592565b82525050565b612d2d81613592565b82525050565b6000612d3e826134ac565b612d4881856134e7565b9350612d538361348c565b8060005b83811015612d84578151612d6b8882612ce5565b9750612d76836134cd565b925050600181019050612d57565b5085935050505092915050565b6000612d9c826134b7565b612da681856134f8565b9350612db18361349c565b8060005b83811015612de2578151612dc98882612cfd565b9750612dd4836134da565b925050600181019050612db5565b5085935050505092915050565b6000612dfa826134b7565b612e048185613509565b9350612e0f8361349c565b8060005b83811015612e40578151612e278882612cfd565b9750612e32836134da565b925050600181019050612e13565b5085935050505092915050565b612e56816135a4565b82525050565b612e65816135a4565b82525050565b6000612e76826134c2565b612e80818561351a565b9350612e908185602086016135e9565b612e998161370c565b840191505092915050565b6000612eaf826134c2565b612eb9818561352b565b9350612ec98185602086016135e9565b612ed28161370c565b840191505092915050565b6000612eea60108361352b565b9150612ef58261371d565b602082019050919050565b6000608083016000830151612f186000860182612d15565b5060208301518482036020860152612f308282612e6b565b91505060408301518482036040860152612f4a8282612e6b565b91505060608301518482036060860152612f648282612d91565b9150508091505092915050565b600061016083016000830151612f8a6000860182613156565b506020830151612f9d6020860182612d15565b5060408301518482036040860152612fb58282612e6b565b91505060608301518482036060860152612fcf8282612e6b565b91505060808301518482036080860152612fe98282612e6b565b91505060a083015184820360a08601526130038282612e6b565b91505060c083015184820360c086015261301d8282612e6b565b91505060e083015184820360e08601526130378282612e6b565b91505061010083015161304e610100860182613156565b506101208301518482036101208601526130688282612e6b565b91505061014083015161307f610140860182612e4d565b508091505092915050565b6000610100830160008301516130a36000860182613156565b5060208301516130b66020860182612d15565b50604083015184820360408601526130ce8282612e6b565b915050606083015184820360608601526130e88282612e6b565b915050608083015184820360808601526131028282612e6b565b91505060a083015184820360a086015261311c8282612e6b565b91505060c083015184820360c08601526131368282612e6b565b91505060e083015161314b60e0860182612e4d565b508091505092915050565b61315f816135d0565b82525050565b61316e816135d0565b82525050565b60006020820190506131896000830184612d24565b92915050565b60006060820190506131a46000830186612d24565b81810360208301526131b68185612ea4565b905081810360408301526131ca8184612ea4565b9050949350505050565b600060208201905081810360008301526131ee8184612d33565b905092915050565b600060208201905081810360008301526132108184612def565b905092915050565b6000602082019050818103600083015261323181612edd565b9050919050565b600060208201905081810360008301526132528184612f00565b905092915050565b600060208201905081810360008301526132748184612f71565b905092915050565b60006020820190508181036000830152613296818461308a565b905092915050565b60006020820190506132b36000830184613165565b92915050565b6000610100820190506132cf600083018b613165565b6132dc602083018a612d24565b81810360408301526132ee8189612ea4565b905081810360608301526133028188612ea4565b905081810360808301526133168187612ea4565b905081810360a083015261332a8186612ea4565b905081810360c083015261333e8185612ea4565b905061334d60e0830184612e5c565b9998505050505050505050565b600061016082019050613370600083018e613165565b61337d602083018d612d24565b818103604083015261338f818c612ea4565b905081810360608301526133a3818b612ea4565b905081810360808301526133b7818a612ea4565b905081810360a08301526133cb8189612ea4565b905081810360c08301526133df8188612ea4565b905081810360e08301526133f38187612ea4565b9050613403610100830186613165565b8181036101208301526134168185612ea4565b9050613426610140830184612e5c565b9c9b505050505050505050505050565b6000613440613451565b905061344c828261364e565b919050565b6000604051905090565b600067ffffffffffffffff821115613476576134756136dd565b5b61347f8261370c565b9050602081019050919050565b6000819050602082019050919050565b6000819050602082019050919050565b600081519050919050565b600081519050919050565b600081519050919050565b6000602082019050919050565b6000602082019050919050565b600082825260208201905092915050565b600082825260208201905092915050565b600082825260208201905092915050565b600082825260208201905092915050565b600082825260208201905092915050565b6000613547826135d0565b9150613552836135d0565b9250827fffffffffffffffffffffffffffffffffffffffffffffffffffffffffffffffff038211156135875761358661367f565b5b828201905092915050565b600061359d826135b0565b9050919050565b60008115159050919050565b600073ffffffffffffffffffffffffffffffffffffffff82169050919050565b6000819050919050565b82818337600083830152505050565b60005b838110156136075780820151818401526020810190506135ec565b83811115613616576000848401525b50505050565b6000600282049050600182168061363457607f821691505b60208210811415613648576136476136ae565b5b50919050565b6136578261370c565b810181811067ffffffffffffffff82111715613676576136756136dd565b5b80604052505050565b7f4e487b7100000000000000000000000000000000000000000000000000000000600052601160045260246000fd5b7f4e487b7100000000000000000000000000000000000000000000000000000000600052602260045260246000fd5b7f4e487b7100000000000000000000000000000000000000000000000000000000600052604160045260246000fd5b6000601f19601f8301169050919050565b7f6e6f7420656e6f7567682076616c756500000000000000000000000000000000600082015250565b61374f81613592565b811461375a57600080fd5b50565b613766816135a4565b811461377157600080fd5b50565b61377d816135d0565b811461378857600080fd5b5056fea264697066735822122009c1773eacb7712395b2dc08c013109ca8c382e6eeafb05978cac32a73f5a22064736f6c63430008040033",
  "linkReferences": {},
  "deployedLinkReferences": {}
}